{
  "contractName": "Kudiwallet",
  "abi": [
    {
      "inputs": [],
      "stateMutability": "nonpayable",
      "type": "constructor"
    },
    {
      "inputs": [],
      "name": "owner",
      "outputs": [
        {
          "internalType": "address payable",
          "name": "",
          "type": "address"
        }
      ],
      "stateMutability": "view",
      "type": "function"
    },
    {
      "inputs": [
        {
          "internalType": "uint256",
          "name": "_amount",
          "type": "uint256"
        }
      ],
      "name": "withdraw",
      "outputs": [],
      "stateMutability": "payable",
      "type": "function"
    },
    {
      "inputs": [],
      "name": "getBalance",
      "outputs": [
        {
          "internalType": "uint256",
          "name": "",
          "type": "uint256"
        }
      ],
      "stateMutability": "view",
      "type": "function"
    }
  ],
  "bytecode": "0x608060405234801561001057600080fd5b5060008054906101000a9050506103508061002c6000396000f3fe6080604052600436106100345760003560e01c806312065fe0146100395780632e1a7d4d146100645780638da5cb5b14610080575b600080fd5b34801561004557600080fd5b5061004e6100ab565b60405161005b919061026d565b60405180910390f35b61007e600480360381019061007991906101c4565b6100b3565b005b34801561008c57600080fd5b5061009561018b565b6040516100a29190610232565b60405180910390f35b600047905090565b60008054906101000a900473ffffffffffffffffffffffffffffffffffffffff1673ffffffffffffffffffffffffffffffffffffffff163373ffffffffffffffffffffffffffffffffffffffff1614610141576040517f08c379a00000000000000000000000000000000000000000000000000000000081526004016101389061024d565b60405180910390fd5b3373ffffffffffffffffffffffffffffffffffffffff166108fc829081150290604051600060405180830381858888f19350505050158015610187573d6000803e3d6000fd5b5050565b60008054906101000a900473ffffffffffffffffffffffffffffffffffffffff1681565b6000813590506101be81610303565b92915050565b6000602082840312156101da576101d96102d5565b5b60006101e8848285016101af565b91505092915050565b6101fa81610299565b82525050565b600061020d600a83610288565b9150610218826102da565b602082019050919050565b61022c816102cb565b82525050565b600060208201905061024760008301846101f1565b92915050565b6000602082019050818103600083015261026681610200565b9050919050565b60006020820190506102826000830184610223565b92915050565b600082825260208201905092915050565b60006102a4826102ab565b9050919050565b600073ffffffffffffffffffffffffffffffffffffffff82169050919050565b6000819050919050565b600080fd5b7f4e6f74206f776e65722100000000000000000000000000000000000000000000600082015250565b61030c816102cb565b811461031757600080fd5b5056fea2646970667358221220098f0c7afb89172c4e52cd27f5517ef37b2e890c2dfc4f98b5ae93a57cafc3fb64736f6c63430008070033",
  "immutableReferences": {},
  "source": "// SPDX-License-Identifier: MIT\r\npragma solidity 0.8.7;\r\n\r\ncontract Kudiwallet{\r\n    //This wallet only allows the account that deploys the smart contract to be able to withdraw\r\naddress payable public owner;\r\n\r\n    constructor(){\r\n        msg.sender == owner;\r\n    }\r\n    modifier requireOwner() {\r\n        require(msg.sender == owner, \"Not owner!\");\r\n        _;\r\n    }\r\n    function withdraw(uint _amount) external payable requireOwner{\r\n       payable (msg.sender).transfer(_amount);\r\n    }\r\n    function getBalance() external view returns(uint){\r\n        return address(this).balance;\r\n    }\r\n}",
  "sourcePath": "C:\\Users\\dell\\Desktop\\AngularWeb3UI\\blockchain\\contracts\\Withdraw.sol",
  "compiler": {
    "name": "solc",
    "version": "0.8.7+commit.e28d00a7.Emscripten.clang"
  },
  "schemaVersion": "3.4.12",
  "updatedAt": "2023-03-01T22:56:50.751Z",
  "devdoc": {
    "kind": "dev",
    "methods": {},
    "version": 1
  },
  "userdoc": {
    "kind": "user",
    "methods": {},
    "version": 1
  }
}